:10000000A4C20000BFC20000BDC20000BBC200000D
:10001000B9C20000B7C20000B5C20000B3C2000000
:10002000B1C20000AFC200000C942B340C94133505
:100030000C94E033A7C20000A5C20000A3C20000D8
:10004000A1C200009FC200009DC200009BC2000030
:1000500099C200000C94073495C2000093C20000BE
:1000600091C200008FC200008DC200008BC2000050
:1000700089C2000087C2000085C2000083C2000060
:1000800081C200007FC200007DC200007BC2000070
:1000900079C2000077C2000075C2000073C2000080
:1000A00071C200006FC200006DC2000005010902AC
:1000B000A10185020901A1000509190129081500FE
:1000C0002501950875018102050109300931158165
:1000D000257F95027508810609381581257F9501D0
:1000E00075088106050C0A38021581257F95017572
:1000F000088106C0C005010980A101850319012AF4
:10010000B700150126B700950175108100C0050CD8
:100110000901A101850419012AA002150126A002E6
:10012000950175108100C00660FF0961A101096297
:10013000150026FF00952075088102096315002629
:10014000FF00952075089102C005010906A101056F
:100150000719E029E7150025019508750181029529
:1001600001750881010507190029FF150026FF0008
:100170009506750881000508190129051500250156
:10018000950575019102950175039101C009025B06
:1001900000030100A0FA09040000010301010009A5
:1001A0002111010001224400070581030800010913
:1001B00004010002030000000921110100012222B4
:1001C0000007058203200001070503032000010941
:1001D0000402000103000000092111010001227B3B
:1001E000000705840320000112010002000000083E
:1001F000880001000001010203011C037600690070
:1002000061006C003A006600360034006300320082
:10021000620033006300000012034D0049002D000E
:100220004B004D0043003600310000000E034D002E
:100230007500670075006500740000000403090480
:1002400000000000000000000000000000000000AE
:10025000000000000000000000000000000000009E
:10026000000000007E0F00D4FFFFFFC700000078F1
:1002700000000000000000002A2B28000000000001
:100280000000000000000000000000290000000045
:100290002C1E3420212224342627252E362D3738B3
:1002A000271E1F202122232425263333362E3738BC
:1002B0001F0405060708090A0B0C0D0E0F1011127A
:1002C000131415161718191A1B1C1D2F3130232D46
:1002D000350405060708090A0B0C0D0E0F10111244
:1002E000131415161718191A1B1C1D2F3130354CF5
:1002F0001E001F0020002100220023000100010039
:1003000001000100010001000100010001000100E5
:100310000100010001000100D5048412FC1200005C
:1003200002000200D1048412FC120000030001004C
:10033000D6048412FC12000004000200BB048412E4
:10034000FC12BB0605000100D7048412FC12000059
:1003500006000200BD048412FC1200000700020027
:10036000D3048412FC12000009000200BF048412AE
:10037000FC12C4060A000200C1048412FC12C40666
:100380000B000200C3048412FC12C4060C0002001D
:10039000C5048412FC12C4060D000200C7048412B6
:1003A000FC12C4060E000200C9048412FC12C4062A
:1003B0000F000200CB048412FC12C40610000200DD
:1003C000CD048412FC12C40611000200CF04841272
:1003D000FC12C40612000200D9048412FC120000B0
:1003E00013000200DB048412FC1200001400010060
:1003F000DD048412FC120000150000000000F1066C
:10040000CE0D000016000100D8049B12121300004C
:1004100017000101D8049B121213000018000102FA
:10042000D8049B121213000019000200DF0484128A
:10043000FC1200001A000103D8049B1212130000E2
:100440001B000200E1048412FC120000FD377A5800
:100450005A000004E6D6B44602002101160000004E
:10046000742FE5A3E000A900875D003D8889C6548C
:1004700036C3174FE4E29B5E15A8DE5971109871E0
:10048000388126B2DF42049F52741BC07D999BBD08
:100490008A614A014A7E4E4A503A34C92B32991633
:1004A0003850F589FA28B6E91EE9171FD21BF43334
:1004B0009BC8536CB16221ED654EE0461E0C002CCA
:1004C000A13ECF02D75BF08DAED1452A53C15597DF
:1004D0007BCDF5C236C23E02DB39FC05F4950F2C0C
:1004E000A1108C3707D86355D5A6FCBF3C5A7D8D2B
:1004F000A5190000A1B9AFFF563BD3E30001A3014A
:10050000AA0100007B0DA942B1C467FB02000000F4
:100510000004595A4C4C524C4C52504F52514A4D77
:100520004B4E2A4C2F30B6B7ABACBBBCA9AABDBE54
:10053000CFD0CDCEDBDCD9DA0D0E0B0F1A050805B6
:100540000905071811130408120C11241FBECFEF60
:10055000DAE0DEBFCDBF11E0A0E0B1E0EAEAFDE6FF
:1005600002C005900D92A83AB107D9F725E0A8EA94
:10057000B1E001C01D92AF35B207E1F70E944A2CED
:100580000C9457363DCD9C0191509F31B0F4832F90
:10059000817034FF0AC08295807F31FD806232FD18
:1005A000806433FF0BC08068089531FD826032FDA6
:1005B000846033FF03C08860089580E00895CF937E
:1005C000DF93EB01E0DFFE010995DF91CF91089504
:1005D0000C9483350895982F92959F7061F420E0D4
:1005E000982F892F8695869511F02E5F982F892F49
:1005F0008695820F089524E0F4CF282F92959F705E
:10060000963099F060F4925F9F70923030F4203F02
:10061000B1F038F481E0283E38F080E008959A5F28
:10062000F3CF81E0243FC9F7089591E0813F09F0BD
:1006300090E081E0283E08F080E0892B089581E079
:10064000089580935A05089580935B05089521E0ED
:1006500001C0220F8A95EAF780915B05822BF4CFC7
:1006600021E001C0220F8A95EAF7822F80959091B0
:100670005B058923E9CF923048F5833038F5492F5F
:1006800050E09A01220F331F240F351F820F932F42
:10069000911D21E001C0220F8A95EAF7ECEDF2E00E
:1006A00040E070E03191DF01CB01042E02C096954D
:1006B00087950A94E2F78695880B83278223832700
:1006C0008E934F5F5F4F4330510561F7089592302D
:1006D00028F5833018F5292F30E0A901440F551F64
:1006E000420F531F480F511DECEDF2E060E070E047
:1006F00080E0219130E0042E02C0369527950A94BF
:10070000E2F72170062E01C0220F0A94EAF7822B2D
:100710006F5F7F4F6330710561F7089580E0089542
:1007200090915B0521E030E0F90101C0EE0F8A9560
:10073000EAF7D90101C0AA0F6A95EAF7EA2B01C0CE
:10074000220F4A95EAF7892F8E23E81303C0892FD9
:10075000822B7ACF2095822F8923FBCFE091F6025E
:100760009091F502E91302C080E008959F0159E0DD
:10077000E59FF0011124EC56FD4F5181561306C040
:100780005081581303C05581541305C02F5F3F4F4C
:10079000F901E770E7CF81E008958091930290E03E
:1007A00020E0022E001C0008281709060CF008950E
:1007B0002F5FF7CFCF93DF93DB01FC012481213042
:1007C00071F514962C911497213049F5218130E070
:1007D000F901EE0FFF1FE20FF31FEC018881E80F14
:1007E000F11DEC5EFA4F94919A32C9F011962C915A
:1007F000F901EE0FFF1FE20FF31F8E91E80FF11DBD
:10080000EC5EFA4FE49181E09E1301C080E091E03C
:10081000EA3209F090E0892BDF91CF91089581E0D1
:10082000FBCF209178042D79A1F4903578F49032A3
:10083000C0F441E08333910539F0C0F441E08E31DA
:10084000910588F4049728F0842F0895392F3655A0
:1008500011F040E0F9CF9C01205F3645273031058B
:10086000C0F390E0E6CF8C97A1F7EECFC69741E0BA
:10087000039750F3EECF8091F6022091F5022813F2
:1008800001C0089501968770FACF90917804982B53
:100890009093780408958095982F80917804892307
:1008A0008093780408958095982F80917B04892304
:1008B00080937B040895803E9105D1F1C8F4813383
:1008C000910509F481C048F48932910509F471C099
:1008D0008A32910509F47FC0089589339105E1F0CA
:1008E00082389105C9F08533910509F45DC00895FA
:1008F000843E9105D1F148F4823E910531F1833E69
:10090000910541F181EE90E00895863E9105C1F197
:10091000873E9105F1F1089520917604237009F046
:1009200064C02091770423FF14C089E290E0089509
:100930002091760420FD45C03091770430FF09C036
:1009400024FD24C083EE90E008952091760422FDDA
:10095000F7CF08952091760422FD44C030917704AA
:1009600030FD43C024FFF5CF11C02091770421FF53
:10097000F0CF8091760484FD09C087EE90E0089561
:100980002091760423FFE5CF24FFF7CF80E090E0AD
:1009900008952091760423FD2BC03091770431FF18
:1009A000E1CF84EE90E008952091760425FFD1CF29
:1009B000BCCF2091760425FD1EC02091770423FF33
:1009C000C8CF89E390E008952091760426FFC1CF37
:1009D0008AE290E008952091760426FFBACF81E361
:1009E00090E0089582EE90E0089580EE90E0089502
:1009F00086EE90E0089585E390E008959091760466
:100A000092FF10C041E0282F2471243009F040E00B
:100A100031E0282F2871283009F030E0431711F019
:100A20002CE0822793FF10C041E0282F247124314D
:100A300009F040E031E0282F2871283109F030E03A
:100A4000431711F02CE082273091770430FF10C05B
:100A500051E0282F2171213009F050E041E0282F8A
:100A60002871283009F040E0541711F029E082275E
:100A700031FF10C041E0282F2171213109F040E001
:100A800031E0282F2871283109F030E0431711F0A8
:100A900029E0822794FD877E08950F931F93CF93BB
:100AA000DF9309DFEC01D03508F03CC0D03408F00A
:100AB000A6C0C03ED10510F5CD3CD10508F094C0CC
:100AC000C83AD10590F4C53AD10508F07FC0C130CD
:100AD000D10529F0CE010497813A910560F4CE0149
:100AE000DF91CF911F910F910895CE01885A9109FE
:100AF0004B9708F46EC0C0E0D0E0F1CFD03238F4AC
:100B0000D11174C0CE01805E91090897E7CF8D2F77
:100B10008F7174DF082F8C2F90E0CDDE902BEC01CD
:100B2000D062DDCFC03682E5D80708F5C03482E553
:100B3000D80708F080C0C03282E5D80790F4D235DB
:100B400008F065C08C2F8F7159DF43E0CC0FDD1F9B
:100B50004A95E1F7DF70282F84FD88C0C22FD06945
:100B6000BECF8C2F8F71D82FC1EFD06AB8CFC03CC9
:100B700082E5D80700F5C03A82E5D80708F070C0D2
:100B8000CE0180569245809708F0B5CF8C2F869580
:100B90008695877020E2829FC0011124C37021E0F6
:100BA00030E002C0220F331FCA95E2F7E901C82BDB
:100BB000D92BDA6894CFCE01805C9245809708F0FB
:100BC0009ACFDC2FDF71C0EFD06A89CFA497D064B1
:100BD00086CFC85AD0E0CC0FDD1FC55CDE4F099030
:100BE000D881C02DD4647BCFD06579CF8D2F06DF1F
:100BF000082F8C2F90E05FDE902BEC0170CF8C2FB4
:100C000090E059DEDF70C82FD92BD06A68CF8C2FC7
:100C10008695869520E2829FC0011124C37021E051
:100C200030E002C0220F331FCA95E2F7E901C82B5A
:100C3000D92BDD6854CF8C2F86958695877020E25E
:100C4000829FC0011124C37021E030E002C0220F56
:100C5000331FCA95E2F7E901C82BD92BDC683FCFD7
:100C60008C2F8F71CBDEC0E0D82F39CF90E1899FD8
:100C70009001112473CF80E00895F894E82FE29555
:100C8000EF70F0E041A18F7021E001C0220F8A9542
:100C9000EAF7922F9095942391A392A1822F892B0A
:100CA00082A378940895E0917902F0917A023097C6
:100CB00039F00284F385E02D309711F060E2099558
:100CC000089581152CE7920741F420916902309133
:100CD0006A02232B11F480E090E00895EAEEF3E03D
:100CE00080E090E061E67BE244E85BE227EF3BE2F4
:100CF00065837683478350872187328785879687E8
:100D000001963F968830910599F70895903218F42E
:100D1000911106C008959C013052303350F008956F
:100D2000392F94FF02C03295307FFB012081232BA5
:100D3000208390E00895462B22FF0FC0982F9295B4
:100D40009F708F70892B962F92959F706F70692B73
:100D5000942F92959F704F70492B982F962396133E
:100D600008C040955FEF90E04823592381E0452B70
:100D700009F080E008958091BB049091BC048093B9
:100D800014019093150108958091BF049091C004BF
:100D90006AE070E00E945635609318018091C104AA
:100DA000809319018091C504809303018091C70449
:100DB000809302018091C9049091CA046AE070E0B6
:100DC0000E945635609316018091CB0480931701E1
:100DD0008091CD04809301018091CF048093000124
:100DE0000895CF93DF938FEF9FEF4430510508F4C0
:100DF00058C02091760421FB882780F990E0880F65
:100E0000991F22FBAA27A0F9B0E0AA0FBB1FAA0FC7
:100E1000BB1F8A2B9B2BC22FC1708C2B23FBEE2771
:100E2000E0F9F0E053E0EE0FFF1F5A95E1F78E2B4B
:100E30009F2B24FB442740F930E1439FA00111245C
:100E4000842B952B25FB442740F930E2439FA001DA
:100E50001124842B952B26FB442740F930E4439F33
:100E6000A0011124842B952B27FB222720F940E891
:100E7000249F90011124822B932B20917704422FE1
:100E80004170942B26952170322F330F932BA92F6D
:100E9000AA0FAA0BFB0180839183A283A38380E026
:100EA00090E0DF91CF9108959C0143E0369527951E
:100EB0004A95E1F72E7130E0F901E053FE4F408191
:100EC00051818F7090E0E82F81E002C0880F991F58
:100ED000EA95E2F7611541F0482B592B20533E4F1C
:100EE000F9014083518308958095909548235923B3
:100EF000F5CF1092EB041092EC04ECE7F4E085815E
:100F0000811102C014821682379684E0EB3BF80709
:100F1000B1F70895DC016091EE048091ED04962F05
:100F2000891301C00895292F30E0F901EE0FFF1F4A
:100F3000ED51FB4F408151814A175B0799F487E0DF
:100F40008A9FA0018B9F500D112444585B4F81E074
:100F5000FA0184839613E6CF2F5F3F4F23702093CF
:100F6000EE0408952395922F9370DACFFC018481CB
:100F7000862351F492819115B9F06923808583FF0E
:100F800005C081E061110FC080E00895292F2295EE
:100F90002F709F70292B962F92959F706F70962BB4
:100FA00081E02913F1CF089581E008950F931F93F5
:100FB000CF9301E0082E01C0000F0A94EAF7C09118
:100FC00075049C2F902341F442DBC027C093750425
:100FD000CF911F910F91089543DBF7CF382F25EB69
:100FE0003203C001112497FF04C080589109892F52
:100FF000089580589F4FFBCF8091E1026091C30418
:101000007091C40480FF14C020910301269FC00189
:10101000279F900D11249695879596958795BC01ED
:1010200060387105E8F561157105E1F1862F0895C5
:1010300081FF0AC020910301269FC001279F900DC8
:10104000112496958795EBCF82FF09C0809103010B
:101050009B01829FB001839F700D1124E1CF80918D
:10106000E0028115E9F290910201209103018917B4
:1010700038F0CB01289FB001299F700D1124D0CFEB
:10108000289F90011124269FA001279F500D369F75
:10109000500D1124692F70E0CA010E945635C0CF4F
:1010A0008FE7089581E008958091E10280FF0CC0F0
:1010B0006091010170E0759567957595679561156B
:1010C000710541F1862F089581FF06C060910101ED
:1010D00070E075956795F3CF6091010182FD0BC0BB
:1010E0009091DF029115A1F06091000180910101C2
:1010F000961738F0682F70E06038710500F38FE7BD
:101100000895899FC001112470E00E946A35F4CFD0
:1011100061E0D8CF81E0089590914C03890290015D
:10112000112437FF03C080934C0308952F373105F6
:101130001CF4980F90934C030895A0E0B0E0FC01DC
:10114000EA0FFB1FE491E41308C031E02A2F2327A4
:10115000820F911DFC01849108951196A61778F3D2
:1011600080E008954115510511F0FA01099508959F
:10117000E0917902F0917A02309739F00190F08194
:10118000E02D309711F00995089580E00895A3E0CF
:10119000B0E0EDECF8E00C94A9352091CB01309152
:1011A000CC0128173907B1F08093CB019093CC0183
:1011B000E0917902F0917A02309761F00084F18534
:1011C000E02D309739F023E029838A839B83CE0179
:1011D000019609952396E2E00C94C535A3E0B0E0B2
:1011E000E4EFF8E00C94A9352091C9013091CA01CF
:1011F00028173907B1F08093C9019093CA01E09193
:101200007902F0917A02309761F00084F185E02D47
:10121000309739F024E029838A839B83CE0101969D
:1012200009952396E2E00C94C5359C01FC013296A9
:1012300080E09FEF4081461759F031969F3F19F4A7
:10124000411101C0982F8F5F8630A1F79F3F09F4AD
:101250000895290F311D97FD3A95F901628308958C
:10126000ECEAF1E09191891302C0DF011E9291E056
:10127000E23BF907B9F708958091050108952FB76A
:10128000F8948091C5019091C601A091C701B091D9
:10129000C8012FBF0895F3DF9C019091E402809173
:1012A000E502982B21F02093620230936302909123
:1012B000E6028091E702982B21F0209360023093A0
:1012C0006102E0917902F0917A02309759F006803C
:1012D000F781E02D309731F082E08093E20282EED8
:1012E00092E009950895611509F440C0E82FED5C7E
:1012F000E33148F4F0E0E75AF94C0C947D357CDE9C
:1013000081958093E502C7CF77DEFBCF75DE8195AF
:101310008093E402F8CF70DEFBCFC6DE8093E60256
:10132000F2CFC2DE8195FACFBFDE81958093E702CE
:10133000EACFBADEFBCF815D990B21E001C0220F1D
:101340008A95EAF78091E302822B8093E302DBCF58
:101350008091E10281608093E102D5CF8091E1022A
:101360008260F9CF8091E1028460F5CF4091E40280
:101370008D3C59F48091E50287FF0DC01092E50283
:10138000411559F41092E00208C08E3C81F480911E
:10139000E50218169CF3411581F08091E6029091C8
:1013A000E702892B09F0AFCF1092DF02ACCF8F3C60
:1013B00041F447FFF0CF1092E4028091E5028115DD
:1013C000E0CF803D19F41416B4F3E5CF9091E60216
:1013D000893D29F41916FCF61092E602DCCF8A3D0D
:1013E00019F497FFD8CFF8CF9091E7028B3D29F4FD
:1013F00097FFD1CF1092E702CECF8C3D19F419168A
:10140000CCF3C9CF982F915D983078F4815D990B1A
:1014100021E001C0220F8A95EAF7822F80959091F2
:10142000E30289238093E302B6CF8D3D31F48091AE
:10143000E1028E7F8093E102AECF8E3D21F4809158
:10144000E1028D7FF7CF8F3D09F0A5CF8091E102BA
:101450008B7FF0CF2FB7F8946091C5017091C601D2
:101460008091C7019091C8012FBF0895CF92DF925C
:10147000EF92FF92CF93DF93EC01C090E403D09002
:10148000E503E090E603F090E703E4DFDC01CB0145
:101490008C199D09AE09BF09843F9140A105B10592
:1014A00008F1D8DF6B017C0182E390E0C0925C021E
:1014B000D0925D02E0925E02F0925F028093580249
:1014C0009093590210925A0210925B02CE01C0937F
:1014D000E2039093E303DF91CF91FF90EF90DF90D1
:1014E000CF90089584EF91E0E1CF87E797E780936D
:1014F00000089093010888E19AE00FB6F894A89547
:10150000809360000FBE90936000FFCF0895FC01B0
:101510002091BB013091BC012617370748F06115B7
:10152000710529F49091E8009E779093E8009B0163
:1015300090E02115310541F4911106C08091E80039
:1015400082FF32C080E0089580916B028115C1F165
:101550008530C1F18091E80083FD30C08091E800C2
:1015600082FDECCF8091E80080FFE3CF8091F30013
:101570004091F200582F2115310519F048305105DE
:1015800058F091E04830510509F090E04091E800B2
:101590004E774093E800CDCF81918093F1002150A8
:1015A00031094F5F5F4FE7CF80916B02811541F0AA
:1015B000853041F08091E80083FFC0CF81E008953D
:1015C00082E0089583E00895982F9093E9008917A9
:1015D00071F07091EC002091ED005091F00021FD30
:1015E00009C09F5F973089F78093E9000895762FAF
:1015F000242F50E03091EB003E7F3093EB00309190
:10160000ED003D7F3093ED003091EB003160309381
:10161000EB007093EC002093ED005093F0002091CC
:10162000EE0027FDDECF08958091B50187FF13C03E
:101630008091E80082FF06C08091E8008B7780935C
:10164000E800089580916B028111F2CF0895809196
:101650006B028115D9F38091E80080FFF8CF80916B
:10166000E8008E77ECCF2091E4003091E50095E61C
:10167000A9012091EC00822F817020FF06C080918B
:10168000E80080FF06C080E008952091E80022FD78
:101690001AC080916B02811589F0853089F08091A4
:1016A000EB0085FD0FC02091E4003091E50042176A
:1016B0005307F9F29150E1F684E0089582E008952D
:1016C00083E0089581E00895CF93DF93C8EDD0E0E3
:1016D00088818F7E8883E7EDF0E080818160808360
:1016E00084E082BF81E08093B40188818E7F88830B
:1016F000E2EE10821092DA00A1EEB0E01C92888136
:101700008F77888388818068888388818F7D8883AC
:1017100019BC10926B021092B301109254021092F5
:10172000B201A0EE8C918B7F8C938881816088833D
:1017300042E060E080E048DFA1EEB0E08C918E7F77
:101740008C93E2EEF0E0808181608083808188600C
:101750008083E0EE80818E7F8083888180618883B2
:10176000DF91CF910895E8EDF0E080818E7F808356
:101770001092E2001092DA001092E100A0EEB0E0C8
:101780008C9181608C9380818F77808319BCA7EDC9
:101790008C918E7F8C9380818F7E80831092B40198
:1017A0000895009709F408950197EFE9FFE0319754
:1017B000F1F700C00000F5CF0F931F93CF93DF9395
:1017C000EB018A0190916B02943059F58093E90006
:1017D0008FEF9091E80095FD06C095ED9A95F1F791
:1017E00000008150B1F78091E80085FF1AC03BDF0F
:1017F000811112C08091E80085FD06C08091E8004B
:101800008E778093E800F3CF88818093F1000150B8
:10181000104011F02196EECF8091E8008E778093F2
:10182000E800DF91CF911F910F910895603229F464
:1018300040E250E0BC0182E0BFCF0895CF93DF9338
:10184000EC0148E050E0BC0181E0B6DF88E0FE0139
:10185000ADEBB1E001900D928A95E1F7DF91CF9168
:10186000089546E050E0BC0184E0A6CF43E050E09C
:10187000BC0184E0A1CF1F93CF93DF93122F83305D
:10188000F0F46230E0F44330D0F4C62FD0E0D195CC
:10189000C195D109C670D0E0C40FD11DC40FD11DB0
:1018A0009CE0899FC00DD11D1124632FCE01899624
:1018B0000E942236612FCE018A960E942236DF9145
:1018C000CF911F9108959091780480917B04982B7B
:1018D000809166038095892390916503892B80937D
:1018E000AA0148E050E06BE772E08AEA91E00E94CA
:1018F000D935892BB9F088E0EAEAF1E0ABE7B2E04C
:1019000001900D928A95E1F7E0917902F0917A02C7
:10191000309741F00280F381E02D309719F08AEA88
:1019200091E009950895CF93C82F811599F08450BF
:10193000813A90F4ECEAF1E082EB91E02081C21769
:10194000B9F131968E179F07C9F76C2F8AEA91E09B
:101950006CDCB9DFCF9108958C2F805E883050F415
:1019600081E0C1FD84E0C0FD880FC2FD82950E9428
:101970004504EFCF8C2F855A833028F48C2F845266
:10198000990B05DCE7CFEC2FE85AEB3148F4F0E097
:10199000EE0FFF1FEF58FE4F808191811FDCDACFE1
:1019A0008C2F8D5C8331B0F661E08C2F9CDCD2CF24
:1019B0008C2F56DC88DFC9CFCF93DF93EC01805E9C
:1019C0009109089720F06BE67DE0209711F46FE510
:1019D0007DE0CE010E94DF028C2FA5DFDF91CF9149
:1019E0000895611529F020917B04226020937B04E7
:1019F0009C013052303308F490E0DECF811549F17C
:101A0000982F9450913A10F42BDC5DCF982F905E74
:101A1000983058F4982F81E091FD84E090FD880F74
:101A200092FD82950E944B04F0CF982F955A9330E7
:101A300018F480E090E0ABCB982F985A9B3118F4C3
:101A400080E090E0CBCB982F9D5C933110F460E068
:101A50004ACC0895CF93DF93EC01D0DFCE01805EB6
:101A60009109089720F064E77DE0209711F465E67E
:101A70007DE0CE010E94DF02DF91CF9108951F9398
:101A8000CF93DF93182FC091DB04D091DC0489330E
:101A900021F0C091D904D091DA04812F44DF20973E
:101AA00031F4812FABDFDF91CF911F9108958FE942
:101AB0009FE00197F1F700C000002197F0CF81155A
:101AC00019F00E944504FFCE0895811519F00E9477
:101AD0004B04F9CE0895811531F090917B04982B39
:101AE00090937B04F0CE0895811519F00E94530461
:101AF000EACE089580916103811521F082E2F4DF3E
:101B000010926103089510927804ECEAF1E086E007
:101B100011928A95E9F780E090E039DB80E090E06F
:101B20005DDB10927B04CFDEE2EEF2E086E0119204
:101B30008A95E9F71092E0021092DF021092E1021A
:101B4000AACBE1DF8FEF94E32CE08150904020405E
:101B5000E1F700C0000088E19AE00FB6F894A8957C
:101B6000809360000FBE90936000FFCFCF93DF9310
:101B7000EC0180919302883010F0C5DF80E0E82FFF
:101B8000F0E0EE0FFF1FED57FD4F9E01C083318344
:101B90008F5F80939302DF91CF910895CF93DF936E
:101BA0008FEF9FEF44305105B8F0FB01D081C18128
:101BB000AADFD0937604C370809177048C7FC82B02
:101BC000C0937704609176047091770484E090E08C
:101BD0000E943C3680E090E0DF91CF910895AAE228
:101BE000B0E0E5EFFDE00C94A83585EB91E0FC0159
:101BF00001962091F100208321E08D3B9207B9F7F7
:101C00008091B601893009F457C0C8F4823009F4D4
:101C1000B3C0833009F483C0813081F18091E80042
:101C200083FFE7C08091B5019091B6019A3008F02A
:101C3000E0C0E92FF0E0E459F94C0C947D358A308E
:101C400009F48AC08B3051F78091B501813231F7A8
:101C50008091B9019091BA01892B01F78091E80038
:101C6000877F8093E800E0DC81E09091B7019111DB
:101C700001C080E08093060146DFD0CF8091B5019E
:101C8000813A61F68091E800877F8093E800809137
:101C9000B9019091BA01892B59F060E080E090E0A1
:101CA00070E035DC8091E8008B778093E800B6CF58
:101CB00068E08DEB91E0F4CF8091B501813209F0BD
:101CC000ADCF8091B9019091BA018D7F892B09F038
:101CD000A5CF8091E800877F8093E8008091E8009D
:101CE00082FF18C02091F3008091F200922F02979A
:101CF00031F48091F100813011F0863021F480912F
:101D0000F100809305018091E8008B778093E800D3
:101D10008BDC84CF80916B028111E0CF7FCF8091EB
:101D2000B501813A09F07ACF8091B9019091BA0159
:101D3000892B09F073CF8091E800877F8093E800BA
:101D40008091E80080FFFCCF809106018093F10034
:101D50008091E8008E77DACF8091B501813209F069
:101D60005DCF8091E800877F8093E8005DDC809103
:101D7000B8018093040152CF8091B501813A09F0F6
:101D80004DCF8091E800877F8093E8008091E80044
:101D900080FFFCCF80910401D9CF803889F0823850
:101DA00041F58091B9018F70873018F58093E90073
:101DB0008091EB0085FB882780F91092E90006C02E
:101DC00080915402880F9091B201892B9091E80084
:101DD000977F9093E8008093F1001092F10080913A
:101DE000E8008E7723C0811116C08091B701813041
:101DF00009F18091E80083FF0AC08091E800877FA5
:101E00008093E8008091EB0080628093EB00AA96BB
:101E1000E3E00C94C435823061F78091B7018115FD
:101E200079F01092E9008091E800877F8093E800C4
:101E3000FBDBDFCF933009F080E080935402F1CFD9
:101E40008091B9018F70282F2150263090F6809311
:101E5000E9002091EB0020FFE4CF933031F4809132
:101E6000EB0080628093EB00DCCF9091EB009061FF
:101E70009093EB0021E001C0220F8A95EAF72093AE
:101E8000EA001092EA008091EB008860EBCF8111AC
:101E9000B0CF8091B7018F77182F8091E3008078C1
:101EA000812B8093E3008091E800877F8093E80096
:101EB000BBDB8091E80080FFFCCF8091E30080686D
:101EC0008093E30083E0111101C082E080936B02F4
:101ED00090CF8058823008F08CCF8091B7019091DC
:101EE000B8018C3D23E0920789F583E08A838AE27A
:101EF00089834FB7F894DE01139620E03EE051E26B
:101F0000E32FF0E050935700849120FF03C08295A7
:101F10008F703F5F8F708A30B8F0895C8D931D920F
:101F20002F5F243169F74FBF8091E800877F80934E
:101F3000E8006AE270E0CE010196E9DA8091E800FB
:101F40008B778093E80055CF805DE8CF292F30E074
:101F50002330310509F44EC078F52130310509F4FC
:101F600086C08BE590E0EDE8F1E02230310509F024
:101F700040CF2091E800277F2093E8002091BB010B
:101F80003091BC018217930708F49C0140E02115B1
:101F9000310509F071C041116FC08091E80082FDE8
:101FA000CDCF80916B02811549F2853039F2809155
:101FB000E80083FFF2CFC2CF8091B9019091BA01BE
:101FC0002132310509F444C02232310509F011CF24
:101FD0008330910508F00DCFFC01EE0FFF1FE65D89
:101FE000FE4F0190F081E02D895D9E4FDC018C91C8
:101FF00090E010C0282F30E0823011F123303105FD
:1020000068F4232BA9F4ECE3F2E0E4918E2F90E046
:10201000ECE3F2E0009709F4ECCEABCF09F0E9CEA7
:10202000EAEFF1E0E4918E2F90E0EAEFF1E0F2CFF9
:10203000ECE2F2E0E4918E2F90E0ECE2F2E0EACF05
:10204000E8E1F2E0E4918E2F90E0E8E1F2E0E2CF07
:102050008330910508F0CDCE880F991FFC01E05D1B
:10206000FE4F0190F081E02D89E090E082CF82E187
:1020700090E0E8EEF1E07DCF80916B02811509F4EC
:102080005DCF853009F45ACF8091E80083FD56CFAB
:102090008091E80082FD81CF8091E80080FF77CFBA
:1020A0004091F3008091F200942F2115310519F031
:1020B0008830910550F041E0089709F040E08091A8
:1020C000E8008E778093E80062CF44914093F1005E
:1020D0003196215031090196E8CF803809F089CE38
:1020E0008091E800877F8093E8008091B30180931E
:1020F000F10075CE81117DCE8091B701182F82300D
:1021000008F077CE8091E800877F8093E8001093F5
:10211000B3018ADA1115D9F084E080936B0242E0B2
:1021200061EC81E051DA42E261EC84E04DDA42E2B6
:1021300061EC82E049DA42E260EC83E045DA8091CA
:102140006B02843051F482E08093070152CE80917B
:10215000E30087FDE1CF81E0E0CF81E0F5CF809122
:102160001C01877F80931C0180916103811103C052
:1021700082E00E94530480911C0184FF06C08F7E80
:1021800080931C0182E00E94450480911C0185FF20
:1021900006C08F7D80931C0180E20E94450493CB92
:1021A000A0E0B0E0E6EDF0E10C94A435EC018B0189
:1021B000D42E80911C0182FF5FC0E0906804F090F3
:1021C0006904EC16FD0619F0209709F055C08091BE
:1021D0001C018B7F80931C01C1E081FD10C08091A8
:1021E0006604909167049801281B390BC1E0809127
:1021F0001401909115012817390708F4C0E0809167
:102200001C01C0FB81F980931C016C2FC7010E9447
:1022100054078091780481FF08C080911C0180617F
:1022200080931C0182E00E944B048091780485FF1A
:1022300008C080911C01806280931C0180E20E9492
:102240004B046C2FC701CDDBD11429F08091D6044B
:102250008076803219F18091D9049091DA04A1DA64
:1022600080916804909169049C013052303308F4E5
:1022700090E0F0DB74DF0EC0CE019052903398F402
:102280008C2F90E0E7DB8091680490916904C81777
:10229000D90781F30093660410936704CDB7DEB7C6
:1022A000E7E00C94C035CE01EDCF1F93CF93DF93C1
:1022B000182FA091E003B091E103109709F446C0F4
:1022C0001092E2031092E3031092660310926503EA
:1022D0001696CD91DD9118979E0131503F3100F453
:1022E000D1E0C11101C0D0E01996ED91FD911B978D
:1022F000309731F01B966D917D9180E00995D82340
:10230000D11539F08C2F8450813A20F58C2F0E9402
:1023100030091115A1F0E091E003F091E10380850F
:1023200084FD0DC08091DF03811549F0808191818A
:102330009C01215031092F333E4708F497D8C3DA66
:102340001092E0031092E1031092DF03DF91CF912E
:102350001F910895B8DA8C2F51DBDBCFCF93DF9339
:10236000EC0149855A856D857E850E94B2088B8176
:102370000E945304A8DA85E019928A95E9F7DF9163
:10238000CF910895CF93DF93EC018C8181FD10C034
:1023900082608C8380917B049B81892B80937B045A
:1023A00092DA4F8158856D857E85CE010E94B208F4
:1023B00010926204109263048C8180FD02C0CE01F1
:1023C000CDDFDF91CF910895A2E0B0E0EAEEF1E138
:1023D0000C94A03519821A8286E3C82E81E0D82E8B
:1023E0007E018FEFE81AF80A08E311E0AE2C9F2C6B
:1023F000F60121916F012F3F09F43DC0F894E22FBF
:10240000E295EF70F0E031A12F7081E001C0880FFC
:102410002A95EAF7932F982B91A392A1809589236F
:1024200082A3789400C0E8E3F1E031E0B12C21917F
:102430002F3F79F0A22FA295AF70A05EB0E08C91F3
:1024400090E02F7002C0959587952A95E2F780FF5E
:1024500036C080E0B82A330F81E0EB33F80739F754
:10246000F60182918F3F11F00E943D0680EA8A9525
:10247000F1F7F701B0828FEFE81AF80A0C151D0585
:1024800009F0B6CF42E050E06A2D792D81E792E065
:102490000E94D935892BA9F089819A818093710294
:1024A0009093720281E080936E020E943F098093B4
:1024B0006C0290936D022296EBE00C94BC35832F56
:1024C000C9CF80916E028115B1F300916C02109119
:1024D0006D020E943F09801B910B059760F342E05B
:1024E00050E061E772E08FE692E00E94D935892BD7
:1024F00041F0809171029091720280936F029093EB
:10250000700210926E02D7CF9B01BA01FC01329685
:10251000E4914E2F50E06E17710550F00496FC01C7
:1025200065917591C9010E94E63580E090E00895BB
:102530008FEF9FEF0895EF92FF921F93CF93DF935A
:1025400000D000D0CDB7DEB77B01FC0133961491EB
:1025500019821A821B821C82452B61F48FEF9FEF38
:102560000F900F900F900F90DF91CF911F91FF90E0
:10257000EF90089544E050E0BE016F5F7F4FC4DFED
:10258000019661F381E090E002C0880F991F1A95CF
:10259000E2F7A92FAA0FAA0BBA2F49815A816B81A2
:1025A0007C8184239523A623B72321E0892B8A2BC2
:1025B0008B2B09F420E0F701208380E090E0D0CF5E
:1025C0000F931F93CF93DF930BEB14E0CDE4D0E098
:1025D000CE010E940636F80161918F01681719F04B
:1025E000CE010E9422362196C537D10589F7DF91A9
:1025F000CF911F910F910895FC013296E4912E2FF7
:1026000030E04E17510558F00496FC0185919591E4
:10261000A9010E94E635D4DF80E090E008958FEFB5
:102620009FEF0895AF92BF92DF92EF92FF920F93C8
:102630001F93CF93DF9300D000D0CDB7DEB77C01DE
:102640005B01FC013396D49019821A821B821C8292
:10265000452B81F48FEF9FEF0F900F900F900F900D
:10266000DF91CF911F910F91FF90EF90DF90BF907E
:10267000AF90089544E050E0CE010196BC01C7013F
:1026800043DF019639F381E090E00D2C02C0880F02
:10269000991F0A94E2F780959095A92FAA0FAA0B8B
:1026A000BA2F49815A816B817C8184239523A6238B
:1026B000B723F5012081022F017010E002C0000F46
:1026C000111FDA94E2F7212F220F220B802B912B7E
:1026D000A22BB22B89839A83AB83BC8344E050E066
:1026E000CE010196BC01C70187DFB6CF0F931F93C0
:1026F000CF93DF930BEB14E0CDE4D0E0CE010E944A
:102700000636F80181938F012196C537D105B1F7BF
:10271000CEE1D3E0FE0185919591009711F0FC0187
:1027200009952C9684E0C635D807A1F7DF91CF91A3
:102730001F910F9108951092D5041092D6048FEA3C
:102740008093BB041092BC0425E02093D70488E852
:1027500093E18093BD049093BE048AE08093BF040C
:102760001092C00444E14093C1041092C20448E0B6
:102770004093C3041092C4048093C5041092C6040D
:102780006EE16093C7041092C8048093C90410924C
:10279000CA0480E58093CB041092CC044093CD040E
:1027A0001092CE0448E24093CF041092D00442E34A
:1027B0004093D1041092D20448EC4093D304109279
:1027C000D4041092D8044093DF041092E0041092D5
:1027D000D9041092DA048093DB041092DC04209375
:1027E000DD041092E1041092E204EADE8CD910922A
:1027F00076041092770480E084608093770460E030
:1028000074E084E090E00E943C3670CF0F931F93F9
:10281000CF93DF93833018F5623008F54330F8F436
:10282000C62FD0E0D195C195D109C670D0E0C40FB4
:10283000D11DC40FD11D9CE0899FC00DD11D112455
:10284000CE0189960E940636082FCE018A960E94F4
:102850000636902FDF91CF911F910F91089580E060
:1028600090E0F8CF462F2091750230917602232B0D
:1028700089F4703F39F4603F69F48091730290915C
:1028800074020895723030F4633020F4833010F411
:10289000672FBCCF80E090E00895CF92DF92FF9247
:1028A0000F931F93CF93DF936C0100915B05809191
:1028B0005A05082BC2E0D0E010E0C8010C2E02C07F
:1028C000959587950A94E2F780FD0CC02197A8F7AB
:1028D000F12C8F2DDF91CF911F910F91FF90DF9001
:1028E000CF900895FC2EB6018C2FBCDF0E944D05C1
:1028F000019761F3EECF1F93CF93DF93EC01611546
:1029000079F0411569F0C9DF182F682FCE010E94B8
:102910003B03BE01812FA6DFDF91CF911F91089568
:102920000E946703182FF5CFFC01462F27813085C1
:102930002115310529F4658180819181DCDF9C01BD
:10294000C9010895CF93DF93EC01A7DFBE018ADFB1
:102950000E944D05DF91CF910895FC01848181157E
:1029600041F087819085009729F00E944D050C94D5
:10297000FD02089580819181E5DFF9CF613622E083
:1029800072078105910528F4CB0181569E4F0C9466
:10299000063680E0089585E290E00E940636853B89
:1029A00069F486E290E00E9406368D3E39F487E2B3
:1029B00090E00E94063691E08B3109F090E0892F7B
:1029C00081700895AAE0B0E0E8EEF4E10C949E3541
:1029D000C0906902D0906A0281E0809369021092EF
:1029E0006A02812C912CF12C5401712C16C0F80133
:1029F000259135914E2D672D8F2D0E943B0C0E5F3A
:102A00001F4FE3948E2D833091F783E0A80EB11C05
:102A1000872D77247394813039F08501000F111FC1
:102A200000511D4FE12CE3CFF39486E0880E911CFA
:102A30008F2D8330C9F67FDE19821A821B821C8299
:102A40001D821E821F82188688EC89871A8605E7F8
:102A500010E07E018FEFE81AF80A4AE050E0B80172
:102A6000C7010E944036065F1F4F053C1105A9F7BC
:102A7000F7018AE011928A95E9F74AE050E0B8013F
:102A8000C7010E944036065F1F4F0F3181E01807D3
:102A9000A1F7F70189E011928A95E9F78FEF9FEF8F
:102AA0008D839E8387E08A874AE050E0B801C701A2
:102AB0000E944036065F1F4F0F3681E01807A1F7CE
:102AC000F70186E011928A95E9F746E050E0B801F7
:102AD000C7010E9440360A5F1F4F0F3981E0180777
:102AE000A1F7C0926902D0926A022A96EDE00C9496
:102AF000BA35AAE0B0E0EFE7F5E10C94A335E1EFD9
:102B0000F1E08AE511928A95E9F7ECE7F4E08FE3CA
:102B100011928A95E9F781EFC82E81E0D82E9CE7C3
:102B2000E92E94E0F92E05EC10E0F701C082D18285
:102B30004AE050E0B801CE0101960E94F63588E0E7
:102B40009E012F5F3F4FF901D60101900D928A95AA
:102B5000E1F789859A85F701828393838AE0C80E1D
:102B6000D11C87E0E80EF11C065F1F4F0F3181E09A
:102B70001807D9F62A96E8E00C94BF35AAE0B0E031
:102B8000E4ECF5E10C94A53507E613E08FE1E82EBF
:102B900081E0F82E4AE050E0B701CE0101960E9494
:102BA000F635F801389687E011928A95E9F7898120
:102BB0009A81F801808391838F8182838D818383C1
:102BC00088858483898585838B819C81868397838F
:102BD0008A8587FD04C020EF31E02587368780FF96
:102BE00003C0F80191E0908781FF04C0F80190854F
:102BF0009260908782FF04C0F8019085946090876E
:102C000083FF04C0F80190859860908784FF04C01A
:102C1000F80190859061908785FF04C0F801808558
:102C2000806280878AE0E80EF11C015F1F4F8FE60B
:102C3000E81681E0F80609F0ADCF2A96E6E00C949C
:102C4000C135A6E0B0E0E7E2F6E10C94A53501E07D
:102C500013E08FE6E82E81E0F82E46E050E0B70161
:102C6000CE0101960E94F635F80188E011928A950E
:102C7000E9F7B8016C5F7F4F89819A810E948606CF
:102C8000F80180839183B8016B5F7F4F8B819C81BA
:102C90000E948606F801828393838D8186838E81CC
:102CA000878386E0E80EF11C085F1F4F8FE9E81666
:102CB00081E0F80691F62696E6E00C94C1359B017A
:102CC000883070F49AE0899FB00111246B587F4FCF
:102CD0004AE050E0C9010E94F63580E090E0089596
:102CE0008FEF9FEF0895AAE0B0E0E9E7F6E10C94DA
:102CF000A935392F375561F4BE016F5F7F4FDFDF94
:102D0000892B31F489859A852A96E2E00C94C535A1
:102D10008091D3049091D404F7CFA0E0B0E0E3E930
:102D2000F6E10C94A4357B01C42FD22FD02E81154F
:102D3000B1F0409373040E943F098093CD019093BA
:102D4000CE0181E0C1FD84E0C0FD880FC2FD829507
:102D50000E945F0DCDB7DEB7E7E00C94C0358091DF
:102D60007304481337C00091CD011091CE010E9429
:102D70003F09801B910B8C01C701B5DF08171907AC
:102D800048F51D2F105ECD17B1F08C2F8770C1E074
:102D90009C2F01C0990F8A95EAF7892F0E94650D33
:102DA000183048F48D2F877001C0CC0F8A95EAF750
:102DB0008C2F0E945F0D8D2D0E943F0D81E0D1FD73
:102DC00084E0D0FD880FD2FD8295183018F60E945D
:102DD000650DC0CF81E0C1FD84E0C0FD880FC2FD5C
:102DE0008295F5CFA0E1B0E0E8EFF6E10C949B35D9
:102DF000FE013196DF0180E11D928A95E9F707E235
:102E000010E09FE9A92E91E0B92E612C712C2501CB
:102E1000539441949E2E8F2E6201730181E14816D6
:102E20005104610471041CF080E1C82ED12CA6016C
:102E3000B501892D982D0E941336AC0CBD1C0D2CAC
:102E4000000C00084C185D08600870080150104024
:102E500019F76096E0E10C94B7356FEF85E290E0EA
:102E60000E9422366FEF86E290E00E9422366FEFDA
:102E700087E290E00E94223660E088E290E00E94C3
:102E80002236A0DDAFDF65EB85E290E00E942236BE
:102E90006DEE86E290E00E9422366BE187E290E0E0
:102EA0000C942236A0E0B0E0E8E5F7E10C94A235FE
:102EB000EC0198819130E8F009F041C089818130BE
:102EC00029F48A8123960E943F0DF3CF823029F4A2
:102ED0008A8123960E94930CECCF833029F48A8157
:102EE00023960E94FE0CE5CF843041F0229681119A
:102EF000E0CFCDB7DEB7E9E00C94BE358A812396EA
:102F000020E030E09AE0482F4053550B4A305105FD
:102F100060F02115310559F3EFE9FFE03197F1F742
:102F200000C0000021503109F4CF929FB001939F5F
:102F3000700D11249A01260F371F8991E4CF219635
:102F4000E92FF0E0E059FD4F8491B82E292F269506
:102F50002695269530E0F901E05AFD4FE4909770F0
:102F6000F12C092E02C0F594E7940A94E2F7F901D6
:102F7000E05BFD4FC490D12C092E02C0D594C794BC
:102F80000A94E2F7205C3D4FF901049110E002C081
:102F9000159507959A95E2F7E0FE03C081EE0E9431
:102FA000930CC0FE03C086EE0E94930C8B2D0E94F2
:102FB000930C8B2D0E94FE0CC0FE03C086EE0E9477
:102FC000FE0CE0FE03C081EE0E94FE0C00FF71CFFC
:102FD0008CE279CFACE0B0E0E0EFF7E10C9499350A
:102FE0007C01FC018481811509F494C160E0C70172
:102FF0009BDCF7012681203170F44091F60230917C
:10300000F50243132CC03091F102311521F03091BB
:10301000F202303120F1F701358131110CC09035C9
:1030200008F062C0903208F076C0883E910588F4BE
:10303000803E9105A0F48093EA029093EB02F701A1
:10304000828193818093E8029093E90210921A01A1
:1030500006C09C0131503F3170F78111ECCF61E027
:10306000C70162DC8C01F7018581811511F1E091C6
:103070006204F09163043097E1F00E171F07C9F066
:103080008E2F887F90E0892B09F047C08FE0E89F62
:10309000F0011124E651FC4F848184608483008315
:1030A0001183CF016FD910927B0461E0C7013CDC32
:1030B0008C0180915603811138C0F70185818115FB
:1030C00009F4EFC0103508F0BBC0103208F026C17B
:1030D000011587E0180749F118F5C801805E9109CC
:1030E000089708F0BDC021C0803E22E5920768F431
:1030F000803C22E5920708F0B2CF9C012052324575
:103100002032310508F097CFAACF9C0127573C47C2
:1031100022303105F7CF2031F5CFE0E0F0E0BCCF31
:1031200001158FE0180709F09BC0F7018581811117
:10313000DCC1173508F4D7C2183510F00C941723EA
:10314000680189EAD80E67E573E08C2DB8DD892B1C
:1031500029F58FE08C9DF0018D9DF00D1124E65135
:10316000FC4F8281813009F08AC28091570390918F
:103170005803892B99F08091590390915A03892B18
:1031800069F080915B0390915C0320915D03309125
:103190005E03822B932B892B09F47BC28091610300
:1031A000811509F415C3D09078040E943F0988570F
:1031B0009C4E8093620390936303F7018581811590
:1031C00009F406C38D2D8D7909F029C3103508F057
:1031D000DBC2103408F02AC3063E110509F4F8C218
:1031E000C8019052903208F0E4C28681803108F420
:1031F00010C3C02ED12C80911C0180FF21C38DEF04
:103200000E9453048DE2C816D104A1F008F02BC32C
:1032100088E2C816D10408F015C38EE1C816D1049F
:1032200008F014C384E0C81AD1088AE1C816D10492
:1032300008F0F5C280917B04826080937B0406C312
:10324000003E92E5190738F5003C82E5180708F0C2
:103250006CCF003482E51807C8F4123508F065CF4A
:1032600080917B0490917804892B99E0F701A2E486
:10327000B3E001900D929A95E1F700934903109302
:103280004A0310924C03809341034FCFC8018056EC
:103290009245809726CF980127573C472530310526
:1032A000F8F609379CE71907E1F5209149033091B9
:1032B0004A03232B79F18115A1F081E00E948C084B
:1032C000809141030E946B0D89E0E2E4F3E0A8EFF6
:1032D000B2E001900D928A95E1F780914C038093C2
:1032E000F70286E0F701A8EFB2E001900D928A950F
:1032F000E1F78091F7028093560388EF92E06ADE4F
:1033000010925603F7018581811104C08091410319
:103310000E94740D2C96E2E10C94B53586818031C3
:10332000E0CE0A379CE7190709F0FFCE811509F4B2
:10333000B1C0C0904903D0904A0310914103198352
:10334000BE016F5F7F4FC6010E9486062C018981F6
:103350008987F1E06F2EF3E07F2EA1E0AA2EB12C39
:103360008FEF8F83F301078103FF4DC020803180F1
:103370008280938042145304A9F484818B87202F88
:103380004681682F89850E949B06811559F08B859F
:103390000E94E8029F8198172CF4F30125815401C3
:1033A000B22A8F8348145904C1F401FF16C0F301F7
:1033B00085818B87202F4681682F89850E949B06F7
:1033C000811559F08B850E94E8029F8198172CF493
:1033D000F30124815101B22A8F8300FF14C08F8131
:1033E0008F3F89F481E0A816B10469F4202FF3011E
:1033F000468160E089850E949B06811521F0F301DA
:1034000085815401B82A88E0680E711C81E493E03C
:103410008615970509F0A6CF81E0A816B10481F5BD
:10342000012F02950F70012B0F7081E0103108F40D
:1034300080E080FD006180E2D816E0F4D1104EC03B
:103440009C2C802F8D704C2D811509F44AC06AE0A8
:1034500080E495E00E949D08A82E811109C0492DA5
:103460006EE18AE195E00E949D08A82E811531F059
:10347000B02E06C0C6019052903388F1A12CB12C19
:10348000EDE4F3E087E011928A95E9F7A092540306
:10349000B09255038091540390915503892B09F400
:1034A00039CFF7018581811539F08FEF0E948C08A3
:1034B00080914C0380934B0386E0F701ADE4B3E0C9
:1034C00001900D928A95E1F780914B03809356030A
:1034D0008DE493E07FDD109256031CCF0D29D12C93
:1034E000AFCF68E088E395E0B5CFC8019757803843
:1034F000910508F0DFC0093008F00CCF60E672E0FB
:1035000080E090E03BDA811105CFE12CF12C6701DE
:10351000011139C08E010F5F1F4FF80184E0119235
:103520008A95E9F7B601C70129DA8983811509F47B
:10353000F1CE460157019FEF891A990AA90AB90AE3
:103540008130F1F4B401C50119DA782E8A8381152E
:1035500009F4E0CEB601C7016E5F7F4F8F4F9F4FDA
:10356000272D2150233030F523E0C20ED11CE11C61
:10357000F11C4601570102DA8B83811509F445C01D
:10358000C80190DC42C081E6C81682E0D806E1049A
:10359000F10409F4BFCEB601C701F0D99FEFC91AF3
:1035A000D90AE90AF90A8111EECF0150B1CF4B01D6
:1035B0005C012BC0272D2550233080F54601570193
:1035C00023E0820E911CA11CB11CD8D98B838115DC
:1035D000E1F084E0C80ED11CE11CF11CB401C5016E
:1035E000CDD98C83811579F08B819C8181302FEF2F
:1035F000920710F0982F80E0272D263049F02730D1
:1036000051F00E94522B460157016401750185CF8C
:103610000E94142BF8CF0E94332BF5CF272D243096
:1036200031F6ACD9782E811509F474CEB601C701F4
:103630006D5F7F4F8F4F9F4FA1D9811509F46ACEDF
:1036400094E0C90ED11CE11CF11C46015701282F42
:103650002150330B4FEF429FC001439F900D112427
:10366000272D2150330B820F931F009771F2019782
:10367000EFE9FFE03197F1F700C00000F6CF8230AC
:1036800009F08CCD80915B0390915C03892B09F448
:1036900085CD2FE02C9DC0012D9D900D1124FC01A6
:1036A000E251FC4F20812E7F208386519C4F0E9447
:1036B000C21174CD03378CE71807A9F48091610318
:1036C000811519F00E947A0D25CE109278040E947F
:1036D0003F0988579C4E809362039093630381E077
:1036E0008093610317CE023A82E51807A1F150F4E6
:1036F000C8019052903210F1013E110561F1053E72
:10370000110503C0023B82E5180709F047CD25EEFD
:1037100030E0277081E001C0880F2A95EAF7482F32
:1037200020916403309161033115E9F0F70135818F
:103730003115A1F0282B20936403ECCDF70186818D
:10374000803108F02BCD812F8F7190E08230910570
:1037500011F04297DACF21EE30E0DBCF8095822363
:1037600080936403D7CD322F342309F417CD982FDB
:1037700090959223909364030E944B04F7018581F6
:10378000811509F4C7CD0ACD003E82E51807C0F4C3
:10379000003C82E51807E0F4003A82E5180758F487
:1037A000003682E51807A0F4C801925580349105CF
:1037B00078F0680120CD043B82E5180749F0F9CF85
:1037C00009378CE7180708F507378CE7180788F3DF
:1037D000F7015580511409F453C00E358CE71807D2
:1037E00009F44AC00F358CE7180749F00D358CE70E
:1037F000180709F045C080911B018115E9F110926D
:103800001B0180E00E94551185CD0B378CE718070E
:10381000D5CF812F8F718431D9F2863161F00E942A
:103820007A0D809164030E944504D2CF8681803155
:1038300008F0DFCCCDCF66EEC62E62E1D62EDBCC13
:103840008FEFDECC8AE2C816D10449F78091640379
:10385000811531F080917B0492E0892780937B046D
:103860000E94630CB5CF8CE4C816D10479F38DE2C5
:10387000C81682E0D806E9CF81E080931B014ACDCB
:1038800080911B01811140C0912F975509F0CBC049
:10389000A02E88EFA822B12CA114B10409F03ACDD2
:1038A0008FE0089FF0011124CF0186519C4F6C01DD
:1038B000D70115968C91E251FC4F908180FB90F9D5
:1038C0009083811509F4EBC10E943F098093640441
:1038D00090936504F60182818F5F828380917B04DF
:1038E00090917804892B83834581568165857685FF
:1038F000C6010E94B208F601848181FF5801A0929E
:103900006204B09263048FC0380180EE681A7108B7
:103910003090780488E06816710408F057C0980168
:10392000277081E001C0880F2A95EAF7511409F445
:103930004AC0382AF701808191810E94670321E003
:1039400030E002C0220F331F8A95E2F72B873C87B5
:103950008091E0039091E1038F8398878091E80341
:103960009091E90389879A8757E6C52E53E0D52EB3
:10397000A12CB12C311004C0F6018281811118C034
:10398000F601838190E02B858223892B89F0808545
:10399000982F977009F487E098E06916710408F091
:1039A000A7C0511409F4A0C0869581708111A5C0EB
:1039B0008FEFA81AB80A8FE0C80ED11C88E0A816AD
:1039C000B104C1F61CC080953822B4CF511079C023
:1039D0008091E8039091E9030817190781F4109288
:1039E000E8031092E9031092E4031092E5031092A9
:1039F000E6031092E7031092E2031092E303809132
:103A0000E0039091E103009709F43ECF28E06216AD
:103A1000710408F02EC1632D0E94B607811103C006
:103A200081E00E9455118091D60480FF9AC10E94C6
:103A30003F096C01F7018581811509F4A3C18091CB
:103A40001C0182FF06C040E0B60180E090E00E94C9
:103A5000D01004318CE7180709F490C105318CE7C8
:103A6000180709F438C103318CE7180709F46CC151
:103A7000C8019052903308F038C110926804109237
:103A80006904F7019581911509F4F0C2109273044D
:103A9000980130572332310508F0E8C284E090E005
:103AA0000E940E368093760490937704F801E150DB
:103AB000F047E232F10508F01FC2EA58F94C0C94C5
:103AC0007D350093E8031093E9030E942A0A60936E
:103AD000E4037093E5038093E6039093E703109269
:103AE000E2031092E30326CF82FB882780F95ECFA2
:103AF000511409F45DCF80FF5BCFF6018080918087
:103B00000815190519F4511409F452CF8F819885BD
:103B10008C159D0509F44CCFF6010584F685E02D42
:103B2000309721F08081811509F442CF632DC601C1
:103B30000E94B607811509F43BCF81E008151905ED
:103B400009F080E08521482E8114910441F0811113
:103B500006C089859A858816990609F029CF80E0E4
:103B60000E945511C092E003D092E10381E080935E
:103B7000DF038FE08A9DF0018B9DF00D1124E95940
:103B8000FC4F85818093660341100EC0811491041F
:103B900059F0808191819C0124503109213A3105ED
:103BA00008F048C00E9430098FE08A9DF0018B9D8B
:103BB000F00D1124E959FC4FC680D780C601915001
:103BC0009F3110F480EED82299249394C601019776
:103BD0008F339E4708F0912C8FE08A9DD0018B9DFA
:103BE000B00D1124A959BC4F1996ED91FD911B9769
:103BF000309731F01B966D917D9181E00995982267
:103C00009114A9F08FE08A9DF0018B9DF00D112495
:103C1000E959FC4F868197810E94C3028093650316
:103C200088E06816710448F4C6010E94360A0E94B2
:103C3000630C0DC00E94FE0CB7CFC6010497813AF9
:103C4000910558F46C2D8AEA91E00E9415094114FF
:103C500009F41ACE0E94630C5DCB0E94630C8FE3C3
:103C60009CE90197F1F700C000008C2D0E94930C95
:103C7000EECFFC01208131810217130741F451106E
:103C800009C01092DF0380E00E945511FDCD511450
:103C900009F4FACDFC01808585FDF6CDF4CFF6015F
:103CA0004385548565857685C6010E94B208F60174
:103CB000848181FFB8CEC6010E94AE11809162045A
:103CC000909163040817190709F0ADCE10926204B1
:103CD00010926304A8CE90911C01892F8E7F90FFD3
:103CE000816080931C010E94AF1080911C0180FFB5
:103CF00038C00832110508F05AC00E31110508F01D
:103D000067C0C80104974A9720F58091D60484FDC6
:103D100020C0F7018581811509F4BCC08091780429
:103D20008D7F09F45AC01092680410926904809142
:103D3000D60481FD52C060E0C8010E94540760E0D3
:103D4000C8010E94F10CE6CA80911C018160809339
:103D50001C01F7018581811521F0109268041092F1
:103D60006904F7018581F801E851FC47E730F10566
:103D700008F087CEE856F94C0C947D3580911C01F3
:103D80008E7FAFCF80911C018F7E013E110531F0F7
:103D9000053E110531F480911C018F7D80931C013B
:103DA000A4CFC8019052903308F09FCF6ACE093358
:103DB000110558F40D32110518F40B32110549F6AE
:103DC0008091D60482FDC5CFA4CF04361105F7CF6C
:103DD0008091D60483FDBDCF9CCF89E0F701AAE690
:103DE000B4E001900D928A95E1F710926C04109264
:103DF0006D04809168049091690408171907B9F55A
:103E00002091D60425FF33C030911C0131FF02C040
:103E100026FF2DC020916604309167047601E21AD6
:103E2000F30A0E947316E816F90608F580917804E3
:103E300081FF08C080911C01806180931C0182E099
:103E40000E944B048091780485FF08C080911C017A
:103E5000806280931C0180E20E944B0460911C01EF
:103E60006695617080916804909169046ACF809131
:103E700078040093680410936904C0926604D09299
:103E800067048270846090911C01997F892B8093D4
:103E90001C0140CA40E0B601C8010E94D0103ACAD5
:103EA00006E221EE41EE6AE17CE70E948D1632CAFD
:103EB00007E225EE45EE6BE17CE7F7CF06E221EE67
:103EC00040EE68E17CE7F1CF07E225EE44EE69E1E0
:103ED0007CE7EBCF06E221EE42EE6CE17CE7E5CF3A
:103EE00007E225EE46EE6DE17CE7DFCF08E221E058
:103EF00045EE6EE17CE7D9CF8091760481608093B6
:103F00007604609176047091770484E090E00E94DA
:103F10003C360E94830DFEC98091770488608093AF
:103F20007704EFCF809176048260E9CF80917604A8
:103F30008460E5CF809176048860E1CF809177043A
:103F40008160EDCF809177048260E9CF8091760423
:103F50008061D5CF809176048062D1CF8091760444
:103F60008064CDCF0E94830D809176048068C7CF96
:103F7000809176048C60C3CF809177048360CFCF2B
:103F8000809176048E7FBBCF80917704877FC7CFE7
:103F9000809176048D7FB3CF809176048B7FAFCFF5
:103FA00080917604877FABCF809177048E7FB7CFE7
:103FB000809177048D7FB3CF809176048F7E9FCFE1
:103FC000809176048F7D9BCF809176048F7B97CFF5
:103FD0000E94830D809176048F7791CF8091760433
:103FE000837F8DCF809177048C7F99CF90917604D9
:103FF000892F8B7F92FF8460877F92FF88607FCFBD
:1040000080917704982F909590FB80F990FB81F92F
:1040100086CF90917604892F8F7B96FF80646FCF37
:104020000E94830D90917604892F97FB87F9805821
:1040300066CF61E08EE090E00E94223662CF60E0C1
:10404000F9CF90917604892F8F7E94FF806157CFAE
:1040500090917604892F8E7F90FF816050CF909150
:104060007704892F877F93FF886059CF06318CE7CB
:104070001807C9F5809178043091D50430FD24C02B
:10408000282F2A7A31FF04C0482F417109F020E01F
:1040900032FF04C0482F487809F020E033FF03C006
:1040A000827209F020E09115A1F081E0211101C098
:1040B00080E08093740465E3211101C069E28AEA1B
:1040C00091E00E941509C6CD282F2474C9F220E082
:1040D000D9CF80917404811521F085E30E943009C5
:1040E000B9CD89E2FBCF07378CE71807F1F0083725
:1040F0008CE7180729F19801205E324520323105FE
:1041000020F5911122C00F7181E090E002C0880F6C
:10411000991F0A95E2F78C01682F83E090E00E94D6
:104120002236802F0E942103F5C881E0911551F0BD
:104130000E94270343E062E081E00E949003EAC806
:1041400082E0F4CF0E943003F5CF80917504B090E7
:104150005B052B2D20953FEF50E0282335232115BB
:10416000310519F08B21809375040B378CE7180704
:1041700049F4911509F4CEC88B2D0E94EB020E94E0
:10418000D607C8C8003482E5180708F045C00032D9
:1041900082E5180708F047C0103508F5103408F01C
:1041A00055C0911509F468C001308CE7180709F46F
:1041B0008DC003308CE7180709F482C001151C4735
:1041C00009F05AC00E94830D8FEF94E32CE08150D8
:1041D00090402040E1F700C000000E94750A98015D
:1041E00030553230F0F6980145E0369527954A95DE
:1041F000E1F7822F8F702091750430E041E0082EA6
:1042000001C0440F0A94EAF72423232B51F29111A1
:10421000B6CF109278041ECD9801205C3245203232
:10422000310508F0BECF802F8F712091750430E0EA
:1042300041E0082E01C0440F0A94EAF72423232BFF
:1042400009F4AFCF911509F465C899CFF7018681BC
:10425000803108F0A6CF91110FC0812F8F7021E01F
:1042600002C0220F331F8A95E2F740917504242380
:104270003523232B09F04EC8F701278130852115FE
:10428000310531F1C9010E944D05182F092F86E033
:10429000F701DE01119601900D928A95E1F7F70181
:1042A000D580C680C2942FE0C222E92FE295EF703C
:1042B000903C08F054C0F0E0E156F94C0C947D3588
:1042C0006FEF7FEF80E090E00E943C360E94A10DEE
:1042D000C080D180911569F0C6010E944D14182F3D
:1042E000682FC6010E943B03B601812F0E94321441
:1042F000CACFC6010E946703182FF6CF892F8F708F
:10430000B82E903118F0B29480EFB822D114B9F0E1
:10431000B11459F0812F805E883010F0111109C05E
:104320008B2D0E9445040E94630C812F0E94930CE8
:1043300016C080917B048B2980937B04F4CF812F5E
:104340000E94FE0CB11459F0812F805E883010F06D
:10435000111119C08B2D0E944B040E94630C812FF8
:10436000902F0E94FD02811541F0D11409F435C14E
:10437000C11409F429C110925E0560E0C7010E94D2
:1043800094140C948A198B2D0E945304E6CF892F24
:104390008F70907F903211F08295807F113071F490
:1043A0009091DD04D11429F09C15C8F20E945F0D94
:1043B000D6CFC916A0F60E94650DD1CFD11419F041
:1043C000C114A1F3B2CFC114B1F38091DB04909179
:1043D000DC04193321F08091D9049091DA040E9411
:1043E000D10B812F0E94FE0CBACF892F869586951E
:1043F0008370813058F009F0B2CF812F9370D110C3
:1044000002C080E090E00E94EE08A9CF812F937057
:10441000D11002C080E090E00E94C708A0CF6D2DAF
:10442000812F0E9473099BCF892F8370B1F5D11022
:1044300029C0812F829586958770880F880F412F1C
:104440004F70082E01C0440F0A94EAF7212F207103
:1044500014FF06C02FE001C0220F8A95EAF72095CD
:10446000902F969596959370923091F0822F842B91
:10447000933031F080915A05913039F0242B82230A
:104480000E9421030E94B8086ACF842B822BF8CFA8
:10449000242B80915A058227F3CFD11441F190FF4C
:1044A000F1CF412F429546954770440F440F812F1D
:1044B0008F70042E01C0880F0A94EAF7212F207113
:1044C00014FF06C02FE001C0220F4A95EAF720959D
:1044D000302F369536953370323079F0333059F0CD
:1044E000313041F0822B8B210E942403CBCF8230CC
:1044F000C0F6C8CF8B29822BF7CF822B8B25F4CF28
:10450000892F8F70B82ED11431F00E942703812F8C
:104510000E945F0DB7CF812F0E94650D8B2D0E94E9
:104520003003B0CF123F99F160F4103FB1F0113F6A
:1045300039F1D114A1F1C11479F1812F0E94930CAA
:10454000A1CF133FB1F780E0D11471F281E09F71E8
:1045500001C0880F9A95EAF7C7CF8091DD04D11486
:1045600059F0C81608F08ECF202F2F7181E001C0BE
:10457000880F2A95EAF7C2CF8C1508F483CFF4CFC1
:10458000892F8F71D11459F20E9427037BCF892F75
:104590008F71D114C9F3C3CF802F8F71F5CFC114A0
:1045A00081F08091DB049091DC04193321F080913B
:1045B000D9049091DA040E94D10B812F0E94FE0C45
:1045C00061CF802F8F71ABCF80917A048093790473
:1045D0008091780480937A04D0CE40E060E08981B5
:1045E0009A810E947B1400917804C11429F01092E2
:1045F0005E0500937A04C1CE20915C0530915D0583
:1046000082179307B1F78091D80482FFF0CF809191
:104610005E05811561F3809179040E945F0D812F01
:104620000E943F0D809179040E94650DE0CF033711
:104630008CE71807A6C8EF92FF920F931F93CF93B2
:10464000DF938091F202803108F047C08091F1023F
:10465000811509F442C08091F6029091F5029817F5
:10466000E1F17C0199E0899FE0011124FE01EC5603
:10467000FD4F84818115B1F191818091ED029813F4
:1046800031C090818091EC0298132CC085818111FA
:1046900029C0028113818091EE029091EF02081BE4
:1046A000190B60E08CEE92E00E9494140E94731645
:1046B00008171907B8F48091F2028F708061809317
:1046C000F202C656DD4F88818F70806188838CEE40
:1046D00092E00E94EA170E943B04CDB7DEB7E6E005
:1046E0000C94C135C70183958770B7CFEF92FF92C5
:1046F0000F931F93CF93DF93F82EE92EC091F6020C
:104700008091F502C81791F189E0C89FE00111245A
:104710008E010C561D4FF8018581811589F0C80165
:104720000E94AD14811561F0FE01E656FD4F8081B7
:104730008F7080618083F801808191810E94B60D25
:10474000C8010E94EA178091F6029091F702019643
:1047500087708093F602CC56DD4F89818E11CECFC3
:1047600088818F11CBCF8D81811541F2CDB7DEB716
:10477000E6E00C94C135FF920F931F93CF93DF9324
:10478000EC0180911A01811539F0F12C8F2DCDB7F4
:10479000DEB7E5E00C94C2350A811B81061B170BBE
:1047A000043F81E0180788F760E0CE010E9494146E
:1047B0009C013052303348F70E941104811529F3CF
:1047C0008091EA029091EB020E941104F82E81156B
:1047D000E1F28091E1049091E204853F21E09207AB
:1047E00010F084EF91E00817190778F68E818F702A
:1047F00080618E83888199810E94B60D0E94CD03CD
:10480000CE010E94EA17C2CF2F923F925F926F9221
:104810007F928F929F92AF92BF92CF92DF92EF9250
:10482000FF920F931F93CF93DF93CDB7DEB72F97F0
:104830000FB6F894DEBF0FBECDBF8C0186E0F80145
:10484000DE011A9601900D928A95E1F7F8017080C9
:104850006180E280F3808480958030919302E0E073
:104860009114A9F12CEEC22E22E0D22E8091F002FA
:10487000811157C08114D1F0911409F472C2C8019A
:104880000E94AD14811509F46CC26091E802709128
:10489000E902C80170DF811109C089E0F801ACEEBE
:1048A000B2E001900D928A95E1F7C5DEFF24F39402
:1048B00099C0880F991F8D579D4FDC0111962C913F
:1048C0001197261103C08C91781649F0EF5F8E2F57
:1048D0009E2F990F990B831791055CF3C3CFEF3F80
:1048E00009F4C0CFD80116968C918F7080618C939B
:1048F000E317A0F4315030939302E31778F4F0E01B
:10490000EE0FFF1FED57FD4FA32FB0E0AA0FBB1F07
:10491000AD57BD4F8D919D91808391830E94CD03B2
:10492000A1CF60E08CEE92E00E9494141C015090A4
:10493000F1028091EE029091EF025701A81AB90A94
:1049400060E08CEE92E0511409F462C20E9494146B
:104950000E947316A816B90608F007C2811409F45C
:10496000A5CF9091ED02F8018181D090F2022D2D1A
:10497000203108F0CFC198136AC09091EC02808179
:10498000981365C02091F3023091F40287819085DD
:104990002817390709F05BC0911059C08D2D8F7011
:1049A00080618093F2028CEE92E00E94EA1780917F
:1049B000F202F8018683C090EE02F090EF020091BF
:1049C000F6028091F502081751F089E0089F8001F6
:1049D00011240C561D4FF801858181111CC00E94C5
:1049E0003B04F12C8F2D2F960FB6F894DEBF0FBE2F
:1049F000CDBFDF91CF911F910F91FF90EF90DF908E
:104A0000CF90BF90AF909F908F907F906F905F906E
:104A10003F902F900895D280E380C8010E94AD148A
:104A200081110EC0C8010E94EA178091F602909190
:104A3000F702019687708093F602CD2CFE2CBFCF33
:104A40006C2D7F2DC80197DE8111EFCFC8CFC1013A
:104A50009052903308F07BC09110F8C040E0662D72
:104A6000872D0E94AE03811147C040E0662D872D3F
:104A70000E94AE03F82E811509F419C18091D80463
:104A800080FFAFCF8CEE92E00E94EA1760E08CEEE0
:104A900092E00E9494148C017090F602C72C88E07A
:104AA000D82E9CEE892E92E0992E8091F502C816A0
:104AB00089F0560129E0C29EC00111248C569D4FF9
:104AC0007C0160E00E949414582E692EF7018581C4
:104AD00081118EC08D2D883008F4B5C08A859B85E4
:104AE00005DE0E94CD030E943B04ECEEF2E089E07B
:104AF00011928A95E9F775CF60E0C8010E9494147D
:104B00008091D80483FFB1CFB8018CEE92E00E946F
:104B1000DA038111AACF8091F2028F7080618093B5
:104B2000F2028091EC029091ED020E94B60D8CEEA3
:104B300092E00E94EA17ECEEF2E089E011928A9589
:104B4000E9F78A859B85D2DD0E94CD0348CF911479
:104B500009F48BCF8091F20281608093F202809100
:104B6000D80481FF3ECF8CEE92E00E94EA170091BC
:104B7000F6028091F502081709F4C5C029E0029FEA
:104B8000C00111248C569D4F7C010E94AD148115EB
:104B900009F4B9C089E0F701ACEEB2E001900D92E2
:104BA0008A95E1F7C80101968770082F8093F60275
:104BB0000E943B048091F502081709F410CF89E0A8
:104BC000089F800111240C561D4FC8010E94AD148E
:104BD000811105CFC8010E94EA172091F602309199
:104BE000F7022F5F3F4F2770022F2093F602E2CF8C
:104BF0001052103308F06ECF8091D80483FD0AC0A4
:104C0000DC2C95012395822F8770C82E052D162D3B
:104C100047014BCFB701C4010E94DA03811589F324
:104C2000EFCF29E0729EC00111248C569D4F0E9447
:104C3000EA172091F6023091F7022F5F3F4F27705D
:104C4000722E2093F602D710ECCF48CF8091F2025B
:104C500081608093F20260E0C8010E949414809108
:104C6000D80483FF7CCFB8018CEE92E00E94DA0377
:104C7000811175CF8091F2028E7FF82E8093F2021F
:104C8000C8010E94AD148111ACCE8F2D8F70806150
:104C90008093F2028091EC029091ED020E94B60D99
:104CA0000E94CD038CEE92E00E94EA171ECF8A8507
:104CB0009B850E94A214292F22952F70903450F4C6
:104CC0009F70223080F0911599F0F8019681903113
:104CD00078F488CE2A5F2F70223078F0C8010E94C5
:104CE000EA17F52C7FCE911519F0811509F47ACECB
:104CF000805E883008F476CEF1CF803F08F472CE23
:104D0000815F8330F7CFECEEF2E089E011928A9573
:104D1000E9F750CF98131DC09091EC028081981351
:104D200018C02091F3023091F402878190852817F2
:104D3000390779F491100DC0D682C8010E94EA1794
:104D400089E0F801ACEEB2E001900D928A95E1F7AE
:104D5000ADCDC8010E94AD14811519F08D2D9110B3
:104D60003AC0C8010E94EA17A1CDB090F2028B2D83
:104D7000803130F48CEE92E00E94EA17F601B7CE53
:104D8000811409F493CD9091ED02F801818198137B
:104D90001AC09091EC028081981315C02091F30203
:104DA0003091F402878190852817390761F49110BA
:104DB0000AC0B682C8010E94EA17F60189E0119282
:104DC0008A95E9F773CDC8010E94AD14811549F2A7
:104DD000911439F28B2D803208F45FCD8091EC0272
:104DE0009091ED0289839A83EB82FC828091F0029C
:104DF0008D831E828091F2028F838091F3029091C5
:104E0000F40288879987CE0101960E94EA1745CD62
:104E10000E9494140E947316A816B90608F0AECF2B
:104E2000811409F443CD911409F49BCF9091ED02C4
:104E3000F8018181981336C09091EC02808198131B
:104E400031C02091F3023091F402878190852817B8
:104E5000390741F58091EE029091EF02E81AF90AC4
:104E600060E08CEE92E00E9494148091DF049091B7
:104E7000E004E816F90608F063CF9091F20290FD85
:104E80005FCF903108F45CCF892FF8019683907F33
:104E9000903F09F452CF982F907F905F8F70892BAD
:104EA00086834BCFC8010E94AD14811561F06091DB
:104EB000E8027091E902C8015EDC811509F4EDCCCD
:104EC000ECEEF2E07BCF8091F20281608093F202FF
:104ED00048CFA2E1B0E0EFE6F7E20C94A6350A87EE
:104EE0001B872C873D874E875F87688B798B8A8BE2
:104EF000CE010A9689DC0C851D85FE8481112DC0AA
:104F00002091F5023091F60289E0AE01465F5F4FD5
:104F1000FA0149505109DA0101900D928A95E1F7A1
:104F2000F114D9F0822F90E08395877090E0AC0166
:104F300034171506C1F199E0929FD0011124AC56A7
:104F4000BD4F9E012F5F3F4FF90101900D929A9541
:104F5000E1F74093F5020E943B048091F6029091A4
:104F6000F502891749F029E0829FC00111248C566F
:104F70009D4F4ADC811124C0F11011C080911A01AB
:104F800081110DC08091E8029091E902081B190B74
:104F90000F3F8FE3180718F081E080931A016296A3
:104FA000E5E00C94C2350E94830D1092F502109238
:104FB000F602ECEEF2E089E011928A95E9F7CDCFA6
:104FC0008091F6029091F702019687708093F60225
:104FD000C4CFEF92FF920F931F93CF93DF938091F3
:104FE0005705E091CF01CDE0811139C0CDB7DEB7D3
:104FF000E6E00C94C135DE2FDF5FD093CF01EE2EBB
:10500000F12CCE9FF0011124E151FB4F84818115D9
:1050100029F187819085892B21F4818592850196DC
:1050200051F400811181228133814481558166814F
:10503000778180854EDFCE9DF001CF9DF00D11244C
:10504000E151FB4F148280916103811521F0809121
:105050001C0180FD0DC08FEF0E945304ED2F809145
:105060005705E81740F2109257051092CF01BECFB6
:105070008DEFF2CFA0E0B0E0E0E4F8E20C949B35D5
:10508000C091EE0497E0992E01E010E08091ED04CC
:105090008C1308C09EDF0E947907CDB7DEB7E0E130
:1050A0000C94B735D0E0FE01EE0FFF1FED51FB4F22
:1050B00080819181989ED001999EB00D1124A458B1
:1050C000BB4F2D01FD01248121115BC0709057055C
:1050D000EFEEF4E060E070E0812C671508F04FC05F
:1050E000A384B484D201CD90DD902FEF3FEF612CEB
:1050F000462D50E07601E60CF11CE60CF11CD701C0
:10510000ED90FD90E114F10439F0AE14BF0409F004
:10511000A90163949A01ECCF2F3F3207B1F1D80176
:1051200001C0AA0F2A95EAF78A2A9801062C02C024
:10513000220F331F0A94E2F7A90141505109841646
:10514000150611F52DE0269FF001279FF00D112483
:10515000E151FB4F989ED001999EB00D1124A458A7
:10516000BB4F12962D913D912783308724E02483F5
:10517000108211828187928721E011962C930E94E0
:105180008A07C395C37082CF14826F5F7F4F3D96AD
:10519000A4CF109258051092590510921D018091CC
:1051A000ED048093EE040E94790713CFACE1B0E0E8
:1051B000ECEDF8E20C9499354B8B5C8B6D8B7E8B10
:1051C0008F8B192F988F811509F450C040E0692FFB
:1051D0008B899C890E947B14111549F010925E0501
:1051E00080935C0590935D0510927B040AC020912A
:1051F0005C0530915D052817390719F481E080932B
:105200005E05188A198A1A8A86E0FE017396DE0105
:105210001A9601900D928A95E1F78E858115D9F045
:1052200061E0CE010A960E94941461E0CE010A96D4
:105230000E94941461E0CE010A960E9494145C01CD
:1052400080E5A8168CE7B806A1F48F85811541F199
:1052500081E080931D010A851B852C853D854E8547
:105260005F85688979898A8934DECEC0911549F2D3
:10527000BBCF81E5A8168CE7B80629F48F85811588
:1052800079F087DFE8CF82E5A8168CE7B80641F40D
:105290008F85811529F080911D018111F2CFD8CF22
:1052A0004CE7E42E44E0F42E712C812C912C140157
:1052B00023946F84F70160817181DD24DA94CD2C11
:1052C00080E0282F30E0FB01E80FF11DE80FF11D11
:1052D000408151814115510539F0A416B50609F0F8
:1052E00096018F5F6901EDCF9FEFC916DC0409F4C9
:1052F00063C1F701448150901D014111512CF70108
:1053000045809681611409F401C1511409F4FEC06D
:105310000091D1041091D204411013C021E00C2C53
:1053200001C0220F0A94EAF7922B96832091EB0496
:105330003091EC042017310720F40093EB04109314
:10534000EC04910102C0220F331F8A95E2F7C901D4
:105350000197F70126812817190609F0BDC0C090F2
:105360005805D0905905C114D10409F451C00E94C8
:105370003F098C199D090817190708F049C081E0F9
:10538000F7018483782A8FEF881A980A87E0E80E5D
:10539000F11C89E08816910409F08BCF611409F49F
:1053A0000DC1711409F40AC10E943F098093580588
:1053B0009093590580915705883030F5982F9F5F5D
:1053C0009093570599E0FE013A969E012F5F3F4F5B
:1053D000D90101900D929A95E1F72DE0829FC001CD
:1053E000112481519B4F29E0AE014F5F5F4FFA01BD
:1053F000DC0101900D922A95E1F72FEF3FEFFC01C0
:1054000021873287A386B4866C96E2E10C94B53589
:105410002091EE048091ED04422FE0E0F0E097E06F
:1054200051E0281709F447C0C22ED12CF601EE0F27
:10543000FF1FED51FB4F00811181909FF001919F63
:10544000F00D1124E458FB4F608171816B8F7C8FCC
:10545000B0E030E0A0E0EB8DFC8DEA0FF11DEA0F2B
:10546000F11D6081718161157105E9F0F70101900D
:10547000F081E02DE98FFA8F30E008C04424439496
:105480006E177F0709F0412CB4293F5FE98DFA8D33
:10549000E30FF11DE30FF11D0190F081E02D309736
:1054A00069F7AF5FD8CFB11571F13A17B8F491E051
:1054B000F7019483F7014093EE04EE15FF0561F0C8
:1054C00090E0FC01EE0FFF1FED51FB4F80829182B7
:1054D000019683708093ED04852D54CF909FF00149
:1054E000919FF00D1124E458FB4F5483EE15FF05F6
:1054F00009F3241304C09A012395422F43709601A7
:10550000239523708ECFE0E0F0E0F9CF292F4110F2
:105510001FC0B10102C0660F771F8A95E2F7CB0169
:1055200001978217930771F0512CC10102C0880FB7
:10553000991FCA94E2F76C01C094F70186818C210F
:105540008683CACF411589F3C4010E948A07ECCF34
:10555000A9010C2C02C0559547950A94E2F7C901A0
:10556000019782239323892B21F540FF22C0F70165
:1055700082819381892BC9F0FE01319687E01192D7
:105580008A95E9F70E943F099C018B839C8384E004
:105590008D83F70192818381792F9887898709818B
:1055A0001A8144E05E816F8194DCF7011582542CEE
:1055B000BCCF4170542EB9CF80E0E4CE9091EE0480
:1055C0008091ED04981731F055DD872D813009F475
:1055D0001BCF41CEFEDC10925805109259050E9457
:1055E0007907F3CFA6E0B0E0E8EFFAE20C94A73534
:1055F0000E943F098C018091770290917802801778
:10560000910771F019821A820E943F09BC014981F9
:105610005A8180E090E0CADD00937702109378020F
:105620002696E4E00C94C335A6E0B0E0EAE1FBE2A4
:105630000C94A9358093730290937402903230F4E5
:105640000E94DC0C2696E2E00C94C53580EF89833D
:105650008A830E943F098160BC0149815A8181E0AF
:1056600091E0A4DDEFCFA6E0B0E0E9E3FBE20C942B
:10567000A9358093730290937402903230F40E94A3
:105680002A0D2696E2E00C94C53580EF89838A8343
:105690000E943F098160BC0149815A8181E090E00C
:1056A00085DDEFCFCF93DF93EC01BEDF8091D9048E
:1056B0009091DA040E94D10BCE01D5DFDF91CF911A
:1056C00008950F931F93CF93DF938C01862F67E587
:1056D00073E00E945F16892B91F4C0915703D0911B
:1056E0005803209761F0F8018281833039F4CE01AC
:1056F000D9DFCE01D7DFCE01D5DF01C0E0F7DF91E2
:10570000CF911F910F9108950F931F93CF93DF9324
:105710008C01C62F67E573E08C2F0E945F16892BE2
:1057200009F058C0EC2FF0E0D80112968C91129736
:10573000E55BFD4F8130A9F414968C9182FD4FC03A
:1057400080FF4DC082E080838091590390915A037D
:105750000097C1F480915703909158030097D1F1BD
:1057600011C08230A9F5D80114968C9182FD26C013
:1057700080FD0AC083E0808380915B0390915C038D
:105780000097F1F051DF26C084E0808380915D03B3
:1057900090915E030097B1F7809157039091580361
:1057A000009701F17FDF8091590390915A03009790
:1057B00049F78091570390915803E4CF85E08083A7
:1057C0008091570390915803009721F06BDFF1CF40
:1057D00086E08083DF91CF911F910F91089581E042
:1057E0008083B8CF8091590390915A03B7CF0F931C
:1057F0001F93CF93DF938C01C62F67E573E08C2F47
:105800000E945F16892BA1F48091D9049091DA044B
:105810000E94D10BD0E0C55BDD4F8881F801128278
:1058200018828330E9F048F4813059F0823081F0F9
:10583000DF91CF911F910F9108958430B1F08530A1
:10584000B9F78091570390915803009789F306C0E8
:105850008091590390915A03009799F304DFE8CFA0
:1058600080915B0390915C03F7CF80915D039091F1
:105870005E03009799F72091570330915803809168
:10588000590390915A0321153105F9F2009731F728
:10589000C901E4CFCDB7DEB7AC970FB6F894DEBF41
:1058A0000FBECDBF85B7806885BF85B7806885BFCF
:1058B00084B7877F84BF0FB6F894A8958091600065
:1058C000886180936000109260000FBE80E890E0D5
:1058D0000FB6F89480936100909361000FBE81E051
:1058E000809307018BE396E08093A8019093A90130
:1058F0000E946E060E9479150E94BE150E94211614
:105900000E9476130E94B30B0E94640B8091E20008
:1059100084608093E200789480916B02811599F005
:105920008091E9001091EC008F7010FB112717F99E
:10593000182B1092E9008091E80083FD0E94EF0D82
:105940001F701093E90082E084BD93E095BD9AEF4B
:1059500097BD80936E000E94CB14811102C00E94FB
:105960002D1780E90E943D0681E90E943D0684E9E9
:105970000E943D0686E60E943D0687E90E943D069C
:1059800010926F02109270021092710210927202C5
:1059900080E090E00E940E36833E9E4F21F40E94EC
:1059A000CB14811129C063EE7EEF80E090E00E946D
:1059B0003C3660E082E090E00E94223681E08093F5
:1059C0005A0561E083E090E00E94223660E074E1D5
:1059D00084E090E00E943C360E942D1760E070E069
:1059E000AB018FE090E00E94343660E070E0AB01E4
:1059F00083E190E00E94343682E090E00E94063617
:105A00008093550284E090E00E940E3680937604E5
:105A1000909377040E94E4118FEF96E721E0815084
:105A200090402040E1F700C000000E94E411809106
:105A30006F0280FF08C06FEF7FEF80E090E00E9470
:105A40003C360E94750A83E090E00E9406360E9470
:105A5000210388E091E08093790290937A028E018D
:105A60000F5F1F4F80916B02853049F480916B026C
:105A7000853009F433C10E94830D0E94B8080E944A
:105A8000E41190916F0280915602981375C1909124
:105A900070028091570298136FC1A4DDE090E20379
:105AA000F090E303E114F104A1F180905C02909086
:105AB0005D02A0905E02B0905F020E942A0ADC01A3
:105AC000CB0188199909AA09BB0940915802509144
:105AD000590260915A0270915B0284179507A607DC
